{
    "_format": "hh-sol-artifact-1",
    "contractName": "MultiTokenContract",
    "sourceName": "contracts/ERC1155.sol",
    "abi": [
        {
            "inputs": [],
            "stateMutability": "nonpayable",
            "type": "constructor"
        },
        {
            "anonymous": false,
            "inputs": [
                {
                    "indexed": true,
                    "internalType": "address",
                    "name": "account",
                    "type": "address"
                },
                {
                    "indexed": true,
                    "internalType": "address",
                    "name": "operator",
                    "type": "address"
                },
                {
                    "indexed": false,
                    "internalType": "bool",
                    "name": "approved",
                    "type": "bool"
                }
            ],
            "name": "ApprovalForAll",
            "type": "event"
        },
        {
            "anonymous": false,
            "inputs": [
                {
                    "indexed": false,
                    "internalType": "address",
                    "name": "account",
                    "type": "address"
                },
                {
                    "indexed": false,
                    "internalType": "uint256",
                    "name": "tokenId",
                    "type": "uint256"
                },
                {
                    "indexed": false,
                    "internalType": "string",
                    "name": "tokenURI",
                    "type": "string"
                }
            ],
            "name": "TokenMint",
            "type": "event"
        },
        {
            "anonymous": false,
            "inputs": [
                {
                    "indexed": true,
                    "internalType": "address",
                    "name": "operator",
                    "type": "address"
                },
                {
                    "indexed": true,
                    "internalType": "address",
                    "name": "from",
                    "type": "address"
                },
                {
                    "indexed": true,
                    "internalType": "address",
                    "name": "to",
                    "type": "address"
                },
                {
                    "indexed": false,
                    "internalType": "uint256[]",
                    "name": "ids",
                    "type": "uint256[]"
                },
                {
                    "indexed": false,
                    "internalType": "uint256[]",
                    "name": "values",
                    "type": "uint256[]"
                }
            ],
            "name": "TransferBatch",
            "type": "event"
        },
        {
            "anonymous": false,
            "inputs": [
                {
                    "indexed": true,
                    "internalType": "address",
                    "name": "operator",
                    "type": "address"
                },
                {
                    "indexed": true,
                    "internalType": "address",
                    "name": "from",
                    "type": "address"
                },
                {
                    "indexed": true,
                    "internalType": "address",
                    "name": "to",
                    "type": "address"
                },
                {
                    "indexed": false,
                    "internalType": "uint256",
                    "name": "id",
                    "type": "uint256"
                },
                {
                    "indexed": false,
                    "internalType": "uint256",
                    "name": "value",
                    "type": "uint256"
                }
            ],
            "name": "TransferSingle",
            "type": "event"
        },
        {
            "anonymous": false,
            "inputs": [
                {
                    "indexed": false,
                    "internalType": "string",
                    "name": "value",
                    "type": "string"
                },
                {
                    "indexed": true,
                    "internalType": "uint256",
                    "name": "id",
                    "type": "uint256"
                }
            ],
            "name": "URI",
            "type": "event"
        },
        {
            "inputs": [
                {
                    "internalType": "address",
                    "name": "account",
                    "type": "address"
                },
                {
                    "internalType": "uint256",
                    "name": "id",
                    "type": "uint256"
                }
            ],
            "name": "balanceOf",
            "outputs": [
                {
                    "internalType": "uint256",
                    "name": "",
                    "type": "uint256"
                }
            ],
            "stateMutability": "view",
            "type": "function"
        },
        {
            "inputs": [
                {
                    "internalType": "address[]",
                    "name": "accounts",
                    "type": "address[]"
                },
                {
                    "internalType": "uint256[]",
                    "name": "ids",
                    "type": "uint256[]"
                }
            ],
            "name": "balanceOfBatch",
            "outputs": [
                {
                    "internalType": "uint256[]",
                    "name": "",
                    "type": "uint256[]"
                }
            ],
            "stateMutability": "view",
            "type": "function"
        },
        {
            "inputs": [
                {
                    "internalType": "address",
                    "name": "account",
                    "type": "address"
                },
                {
                    "internalType": "uint256",
                    "name": "id",
                    "type": "uint256"
                },
                {
                    "internalType": "uint256",
                    "name": "amount",
                    "type": "uint256"
                }
            ],
            "name": "burn",
            "outputs": [],
            "stateMutability": "nonpayable",
            "type": "function"
        },
        {
            "inputs": [
                {
                    "internalType": "address",
                    "name": "account",
                    "type": "address"
                },
                {
                    "internalType": "address",
                    "name": "operator",
                    "type": "address"
                }
            ],
            "name": "isApprovedForAll",
            "outputs": [
                {
                    "internalType": "bool",
                    "name": "",
                    "type": "bool"
                }
            ],
            "stateMutability": "view",
            "type": "function"
        },
        {
            "inputs": [
                {
                    "internalType": "address",
                    "name": "account",
                    "type": "address"
                },
                {
                    "internalType": "uint256",
                    "name": "amount",
                    "type": "uint256"
                },
                {
                    "internalType": "bytes",
                    "name": "data",
                    "type": "bytes"
                },
                {
                    "internalType": "string",
                    "name": "tokenURI",
                    "type": "string"
                }
            ],
            "name": "mint",
            "outputs": [],
            "stateMutability": "nonpayable",
            "type": "function"
        },
        {
            "inputs": [
                {
                    "internalType": "address",
                    "name": "from",
                    "type": "address"
                },
                {
                    "internalType": "address",
                    "name": "to",
                    "type": "address"
                },
                {
                    "internalType": "uint256[]",
                    "name": "ids",
                    "type": "uint256[]"
                },
                {
                    "internalType": "uint256[]",
                    "name": "amounts",
                    "type": "uint256[]"
                },
                {
                    "internalType": "bytes",
                    "name": "data",
                    "type": "bytes"
                }
            ],
            "name": "safeBatchTransferFrom",
            "outputs": [],
            "stateMutability": "nonpayable",
            "type": "function"
        },
        {
            "inputs": [
                {
                    "internalType": "address",
                    "name": "from",
                    "type": "address"
                },
                {
                    "internalType": "address",
                    "name": "to",
                    "type": "address"
                },
                {
                    "internalType": "uint256",
                    "name": "id",
                    "type": "uint256"
                },
                {
                    "internalType": "uint256",
                    "name": "amount",
                    "type": "uint256"
                },
                {
                    "internalType": "bytes",
                    "name": "data",
                    "type": "bytes"
                }
            ],
            "name": "safeTransferFrom",
            "outputs": [],
            "stateMutability": "nonpayable",
            "type": "function"
        },
        {
            "inputs": [
                {
                    "internalType": "address",
                    "name": "operator",
                    "type": "address"
                },
                {
                    "internalType": "bool",
                    "name": "approved",
                    "type": "bool"
                }
            ],
            "name": "setApprovalForAll",
            "outputs": [],
            "stateMutability": "nonpayable",
            "type": "function"
        },
        {
            "inputs": [
                {
                    "internalType": "bytes4",
                    "name": "interfaceId",
                    "type": "bytes4"
                }
            ],
            "name": "supportsInterface",
            "outputs": [
                {
                    "internalType": "bool",
                    "name": "",
                    "type": "bool"
                }
            ],
            "stateMutability": "view",
            "type": "function"
        },
        {
            "inputs": [
                {
                    "internalType": "uint256",
                    "name": "tokenId",
                    "type": "uint256"
                }
            ],
            "name": "uri",
            "outputs": [
                {
                    "internalType": "string",
                    "name": "",
                    "type": "string"
                }
            ],
            "stateMutability": "view",
            "type": "function"
        }
    ],
    "bytecode": "0x608060405260006003553480156200001657600080fd5b50604080516020810190915260008152620000318162000038565b50620001bb565b6002620000468282620000ef565b5050565b634e487b7160e01b600052604160045260246000fd5b600181811c908216806200007557607f821691505b6020821081036200009657634e487b7160e01b600052602260045260246000fd5b50919050565b601f821115620000ea57600081815260208120601f850160051c81016020861015620000c55750805b601f850160051c820191505b81811015620000e657828155600101620000d1565b5050505b505050565b81516001600160401b038111156200010b576200010b6200004a565b62000123816200011c845462000060565b846200009c565b602080601f8311600181146200015b5760008415620001425750858301515b600019600386901b1c1916600185901b178555620000e6565b600085815260208120601f198616915b828110156200018c578886015182559484019460019091019084016200016b565b5085821015620001ab5787850151600019600388901b60f8161c191681555b5050505050600190811b01905550565b611ca680620001cb6000396000f3fe608060405234801561001057600080fd5b50600436106100bd5760003560e01c8063a22cb46511610076578063e985e9c51161005b578063e985e9c514610186578063f242432a146101c2578063f5298aca146101d557600080fd5b8063a22cb46514610160578063c59747a01461017357600080fd5b80630e89341c116100a75780630e89341c1461010b5780632eb2c2d61461012b5780634e1273f41461014057600080fd5b8062fdd58e146100c257806301ffc9a7146100e8575b600080fd5b6100d56100d036600461135c565b6101e8565b6040519081526020015b60405180910390f35b6100fb6100f63660046113b7565b610294565b60405190151581526020016100df565b61011e6101193660046113db565b610377565b6040516100df919061143a565b61013e6101393660046115a3565b610419565b005b61015361014e36600461164d565b6104bb565b6040516100df9190611753565b61013e61016e366004611766565b6105f9565b61013e6101813660046117a2565b610608565b6100fb610194366004611834565b6001600160a01b03918216600090815260016020908152604080832093909416825291909152205460ff1690565b61013e6101d0366004611867565b610686565b61013e6101e33660046118cc565b610721565b60006001600160a01b03831661026b5760405162461bcd60e51b815260206004820152602a60248201527f455243313135353a2061646472657373207a65726f206973206e6f742061207660448201527f616c6964206f776e65720000000000000000000000000000000000000000000060648201526084015b60405180910390fd5b506000818152602081815260408083206001600160a01b03861684529091529020545b92915050565b60007fffffffff0000000000000000000000000000000000000000000000000000000082167fd9b67a2600000000000000000000000000000000000000000000000000000000148061032757507fffffffff0000000000000000000000000000000000000000000000000000000082167f0e89341c00000000000000000000000000000000000000000000000000000000145b8061028e57507f01ffc9a7000000000000000000000000000000000000000000000000000000007fffffffff0000000000000000000000000000000000000000000000000000000083161461028e565b6000818152600460205260409020805460609190610394906118ff565b80601f01602080910402602001604051908101604052809291908181526020018280546103c0906118ff565b801561040d5780601f106103e25761010080835404028352916020019161040d565b820191906000526020600020905b8154815290600101906020018083116103f057829003601f168201915b50505050509050919050565b6001600160a01b03851633148061043557506104358533610194565b6104a75760405162461bcd60e51b815260206004820152602e60248201527f455243313135353a2063616c6c6572206973206e6f7420746f6b656e206f776e60448201527f6572206f7220617070726f7665640000000000000000000000000000000000006064820152608401610262565b6104b48585858585610731565b5050505050565b606081518351146105345760405162461bcd60e51b815260206004820152602960248201527f455243313135353a206163636f756e747320616e6420696473206c656e67746860448201527f206d69736d6174636800000000000000000000000000000000000000000000006064820152608401610262565b6000835167ffffffffffffffff8111156105505761055061144d565b604051908082528060200260200182016040528015610579578160200160208202803683370190505b50905060005b84518110156105f1576105c485828151811061059d5761059d611939565b60200260200101518583815181106105b7576105b7611939565b60200260200101516101e8565b8282815181106105d6576105d6611939565b60209081029190910101526105ea81611965565b905061057f565b509392505050565b6106043383836109cf565b5050565b6106278460036000815461061b90611965565b91829055508585610ae1565b600354600090815260046020526040902061064282826119c5565b507f0ba9941cdcb2c0287940b5f6ab7e4f7c6752775fca32397f9c2083b2ccc03aa2846003548360405161067893929190611a85565b60405180910390a150505050565b6001600160a01b0385163314806106a257506106a28533610194565b6107145760405162461bcd60e51b815260206004820152602e60248201527f455243313135353a2063616c6c6572206973206e6f7420746f6b656e206f776e60448201527f6572206f7220617070726f7665640000000000000000000000000000000000006064820152608401610262565b6104b48585858585610c11565b61072c838383610de7565b505050565b81518351146107a85760405162461bcd60e51b815260206004820152602860248201527f455243313135353a2069647320616e6420616d6f756e7473206c656e6774682060448201527f6d69736d617463680000000000000000000000000000000000000000000000006064820152608401610262565b6001600160a01b0384166108245760405162461bcd60e51b815260206004820152602560248201527f455243313135353a207472616e7366657220746f20746865207a65726f20616460448201527f64726573730000000000000000000000000000000000000000000000000000006064820152608401610262565b3360005b845181101561096157600085828151811061084557610845611939565b60200260200101519050600085838151811061086357610863611939565b602090810291909101810151600084815280835260408082206001600160a01b038e1683529093529190912054909150818110156109095760405162461bcd60e51b815260206004820152602a60248201527f455243313135353a20696e73756666696369656e742062616c616e636520666f60448201527f72207472616e73666572000000000000000000000000000000000000000000006064820152608401610262565b6000838152602081815260408083206001600160a01b038e8116855292528083208585039055908b16825281208054849290610946908490611ab6565b925050819055505050508061095a90611965565b9050610828565b50846001600160a01b0316866001600160a01b0316826001600160a01b03167f4a39dc06d4c0dbc64b70af90fd698a233a518aa5d07e595d983b8c0526c8f7fb87876040516109b1929190611ac9565b60405180910390a46109c7818787878787610f96565b505050505050565b816001600160a01b0316836001600160a01b031603610a565760405162461bcd60e51b815260206004820152602960248201527f455243313135353a2073657474696e6720617070726f76616c2073746174757360448201527f20666f722073656c6600000000000000000000000000000000000000000000006064820152608401610262565b6001600160a01b0383811660008181526001602090815260408083209487168084529482529182902080547fffffffffffffffffffffffffffffffffffffffffffffffffffffffffffffff001686151590811790915591519182527f17307eab39ab6107e8899845ad3d59bd9653f200f220920489ca2b5937696c31910160405180910390a3505050565b6001600160a01b038416610b5d5760405162461bcd60e51b815260206004820152602160248201527f455243313135353a206d696e7420746f20746865207a65726f2061646472657360448201527f73000000000000000000000000000000000000000000000000000000000000006064820152608401610262565b336000610b698561119a565b90506000610b768561119a565b90506000868152602081815260408083206001600160a01b038b16845290915281208054879290610ba8908490611ab6565b909155505060408051878152602081018790526001600160a01b03808a1692600092918716917fc3d58168c5ae7397731d063d5bbf3d657854427343f4c083240f7aacaa2d0f62910160405180910390a4610c08836000898989896111e5565b50505050505050565b6001600160a01b038416610c8d5760405162461bcd60e51b815260206004820152602560248201527f455243313135353a207472616e7366657220746f20746865207a65726f20616460448201527f64726573730000000000000000000000000000000000000000000000000000006064820152608401610262565b336000610c998561119a565b90506000610ca68561119a565b90506000868152602081815260408083206001600160a01b038c16845290915290205485811015610d3f5760405162461bcd60e51b815260206004820152602a60248201527f455243313135353a20696e73756666696369656e742062616c616e636520666f60448201527f72207472616e73666572000000000000000000000000000000000000000000006064820152608401610262565b6000878152602081815260408083206001600160a01b038d8116855292528083208985039055908a16825281208054889290610d7c908490611ab6565b909155505060408051888152602081018890526001600160a01b03808b16928c821692918816917fc3d58168c5ae7397731d063d5bbf3d657854427343f4c083240f7aacaa2d0f62910160405180910390a4610ddc848a8a8a8a8a6111e5565b505050505050505050565b6001600160a01b038316610e635760405162461bcd60e51b815260206004820152602360248201527f455243313135353a206275726e2066726f6d20746865207a65726f206164647260448201527f65737300000000000000000000000000000000000000000000000000000000006064820152608401610262565b336000610e6f8461119a565b90506000610e7c8461119a565b60408051602080820183526000918290528882528181528282206001600160a01b038b1683529052205490915084811015610f1e5760405162461bcd60e51b8152602060048201526024808201527f455243313135353a206275726e20616d6f756e7420657863656564732062616c60448201527f616e6365000000000000000000000000000000000000000000000000000000006064820152608401610262565b6000868152602081815260408083206001600160a01b038b81168086529184528285208a8703905582518b81529384018a90529092908816917fc3d58168c5ae7397731d063d5bbf3d657854427343f4c083240f7aacaa2d0f62910160405180910390a4604080516020810190915260009052610c08565b6001600160a01b0384163b156109c7576040517fbc197c810000000000000000000000000000000000000000000000000000000081526001600160a01b0385169063bc197c8190610ff39089908990889088908890600401611aee565b6020604051808303816000875af192505050801561102e575060408051601f3d908101601f1916820190925261102b91810190611b4c565b60015b6110e35761103a611b69565b806308c379a003611073575061104e611b85565b806110595750611075565b8060405162461bcd60e51b8152600401610262919061143a565b505b60405162461bcd60e51b815260206004820152603460248201527f455243313135353a207472616e7366657220746f206e6f6e2d4552433131353560448201527f526563656976657220696d706c656d656e7465720000000000000000000000006064820152608401610262565b7fffffffff0000000000000000000000000000000000000000000000000000000081167fbc197c810000000000000000000000000000000000000000000000000000000014610c085760405162461bcd60e51b815260206004820152602860248201527f455243313135353a204552433131353552656365697665722072656a6563746560448201527f6420746f6b656e730000000000000000000000000000000000000000000000006064820152608401610262565b604080516001808252818301909252606091600091906020808301908036833701905050905082816000815181106111d4576111d4611939565b602090810291909101015292915050565b6001600160a01b0384163b156109c7576040517ff23a6e610000000000000000000000000000000000000000000000000000000081526001600160a01b0385169063f23a6e61906112429089908990889088908890600401611c2d565b6020604051808303816000875af192505050801561127d575060408051601f3d908101601f1916820190925261127a91810190611b4c565b60015b6112895761103a611b69565b7fffffffff0000000000000000000000000000000000000000000000000000000081167ff23a6e610000000000000000000000000000000000000000000000000000000014610c085760405162461bcd60e51b815260206004820152602860248201527f455243313135353a204552433131353552656365697665722072656a6563746560448201527f6420746f6b656e730000000000000000000000000000000000000000000000006064820152608401610262565b80356001600160a01b038116811461135757600080fd5b919050565b6000806040838503121561136f57600080fd5b61137883611340565b946020939093013593505050565b7fffffffff00000000000000000000000000000000000000000000000000000000811681146113b457600080fd5b50565b6000602082840312156113c957600080fd5b81356113d481611386565b9392505050565b6000602082840312156113ed57600080fd5b5035919050565b6000815180845260005b8181101561141a576020818501810151868301820152016113fe565b506000602082860101526020601f19601f83011685010191505092915050565b6020815260006113d460208301846113f4565b634e487b7160e01b600052604160045260246000fd5b601f19601f830116810181811067ffffffffffffffff821117156114895761148961144d565b6040525050565b600067ffffffffffffffff8211156114aa576114aa61144d565b5060051b60200190565b600082601f8301126114c557600080fd5b813560206114d282611490565b6040516114df8282611463565b83815260059390931b85018201928281019150868411156114ff57600080fd5b8286015b8481101561151a5780358352918301918301611503565b509695505050505050565b600067ffffffffffffffff83111561153f5761153f61144d565b6040516115566020601f19601f8701160182611463565b80915083815284848401111561156b57600080fd5b83836020830137600060208583010152509392505050565b600082601f83011261159457600080fd5b6113d483833560208501611525565b600080600080600060a086880312156115bb57600080fd5b6115c486611340565b94506115d260208701611340565b9350604086013567ffffffffffffffff808211156115ef57600080fd5b6115fb89838a016114b4565b9450606088013591508082111561161157600080fd5b61161d89838a016114b4565b9350608088013591508082111561163357600080fd5b5061164088828901611583565b9150509295509295909350565b6000806040838503121561166057600080fd5b823567ffffffffffffffff8082111561167857600080fd5b818501915085601f83011261168c57600080fd5b8135602061169982611490565b6040516116a68282611463565b83815260059390931b85018201928281019150898411156116c657600080fd5b948201945b838610156116eb576116dc86611340565b825294820194908201906116cb565b9650508601359250508082111561170157600080fd5b5061170e858286016114b4565b9150509250929050565b600081518084526020808501945080840160005b838110156117485781518752958201959082019060010161172c565b509495945050505050565b6020815260006113d46020830184611718565b6000806040838503121561177957600080fd5b61178283611340565b91506020830135801515811461179757600080fd5b809150509250929050565b600080600080608085870312156117b857600080fd5b6117c185611340565b935060208501359250604085013567ffffffffffffffff808211156117e557600080fd5b6117f188838901611583565b9350606087013591508082111561180757600080fd5b508501601f8101871361181957600080fd5b61182887823560208401611525565b91505092959194509250565b6000806040838503121561184757600080fd5b61185083611340565b915061185e60208401611340565b90509250929050565b600080600080600060a0868803121561187f57600080fd5b61188886611340565b945061189660208701611340565b93506040860135925060608601359150608086013567ffffffffffffffff8111156118c057600080fd5b61164088828901611583565b6000806000606084860312156118e157600080fd5b6118ea84611340565b95602085013595506040909401359392505050565b600181811c9082168061191357607f821691505b60208210810361193357634e487b7160e01b600052602260045260246000fd5b50919050565b634e487b7160e01b600052603260045260246000fd5b634e487b7160e01b600052601160045260246000fd5b600060001982036119785761197861194f565b5060010190565b601f82111561072c57600081815260208120601f850160051c810160208610156119a65750805b601f850160051c820191505b818110156109c7578281556001016119b2565b815167ffffffffffffffff8111156119df576119df61144d565b6119f3816119ed84546118ff565b8461197f565b602080601f831160018114611a285760008415611a105750858301515b600019600386901b1c1916600185901b1785556109c7565b600085815260208120601f198616915b82811015611a5757888601518255948401946001909101908401611a38565b5085821015611a755787850151600019600388901b60f8161c191681555b5050505050600190811b01905550565b6001600160a01b0384168152826020820152606060408201526000611aad60608301846113f4565b95945050505050565b8082018082111561028e5761028e61194f565b604081526000611adc6040830185611718565b8281036020840152611aad8185611718565b60006001600160a01b03808816835280871660208401525060a06040830152611b1a60a0830186611718565b8281036060840152611b2c8186611718565b90508281036080840152611b4081856113f4565b98975050505050505050565b600060208284031215611b5e57600080fd5b81516113d481611386565b600060033d1115611b825760046000803e5060005160e01c5b90565b600060443d1015611b935790565b6040517ffffffffffffffffffffffffffffffffffffffffffffffffffffffffffffffffc803d016004833e81513d67ffffffffffffffff8160248401118184111715611be157505050505090565b8285019150815181811115611bf95750505050505090565b843d8701016020828501011115611c135750505050505090565b611c2260208286010187611463565b509095945050505050565b60006001600160a01b03808816835280871660208401525084604083015283606083015260a06080830152611c6560a08301846113f4565b97965050505050505056fea2646970667358221220c72d0a22c19eb88fa4b405dc3db293553572eb880e524fe4ea5939401cfb90fd64736f6c63430008120033",
    "linkReferences": {},
    "deployedLinkReferences": {}
}